:020000040800F2
:100000009812002029020008412A0008352600081D
:10001000C9290008B9070008C52F00080000000022
:10002000000000000000000000000000292B000874
:10003000770A000800000000692A0008AD2B0008BC
:10004000430200084302000843020008430200087C
:10005000430200084302000843020008430200086C
:10006000430200084302000843020008430200085C
:10007000430200084302000843020008430200084C
:100080004302000843020008AD07000843020008CD
:10009000BD0700084302000843020008790A00086F
:1000A000430200084302000843020008430200081C
:1000B00043020008292D00084302000843020008FB
:1000C00043020008430200084302000843020008FC
:1000D00043020008430200084302000843020008EC
:1000E00043020008430200084302000843020008DC
:1000F00043020008430200084302000843020008CC
:1001000043020008430200084302000843020008BB
:1001100043020008430200084302000843020008AB
:10012000F509000843020008010A0008430200081C
:10013000430200084302000843020008430200088B
:10014000430200084302000843020008430200087B
:1001500043020008430200080D0A00084302000899
:10016000430200084302000843020008430200085B
:100170004302000843020008430200080000000098
:10018000430200084302000800F002F800F03CF8C7
:100190000AA090E8000C82448344AAF10107DA45E2
:1001A00001D100F031F8AFF2090EBAE80F0013F0F8
:1001B000010F18BFFB1A43F00103184788530000D2
:1001C000A8530000103A24BF78C878C1FAD8520763
:1001D00024BF30C830C144BF04680C6070470000C1
:1001E0000023002400250026103A28BF78C1FBD840
:1001F000520728BF30C148BF0B6070471FB504F0DD
:1002000039FB1FBD10B510BD00F0BAF91146FFF75C
:10021000F5FF03F0D3F800F0D8F903B4FFF7F2FFCD
:1002200003BC00F03DFA0000094880470948004738
:10023000FEE7FEE7FEE7FEE7FEE7FEE7FEE7FEE796
:10024000FEE7FEE704480549054A064B70470000F3
:10025000652C000889010008980C002098120020E5
:10026000980E0020980E0020018042804360704765
:100270002DE9F04F02884768B0F802804888D1F82D
:10028000049082B04FF0000A1646824207BF0988E8
:1002900088456FF0020002B018BFBDE8F08F4FEA4A
:1002A000980B02EB42000190C8F34000CDF800002B
:1002B00009EB8A01BBF1000F33D0019801EB820CEE
:1002C00001EB80043B46E64601EBC2054FEA0B001A
:1002D00093ED000A401E81ED000A93ED010A01EB47
:1002E00002118CED000A93ED020A0CEB021C85ED65
:1002F000000A93ED030A05EB021584ED000A04EBF6
:10030000021403F11003E3D10EEB820000EB820034
:1003100000EB8201ABF10100504307EB0B1701EB3F
:10032000001118F0030C21D03B1FA1EB82011CF03F
:10033000010F06D093ED010A01EB82011B1D81ED37
:10034000000A009880B100BF93ED010A01EB82041E
:1003500001EBC20184ED000A93ED020A401E81ED1B
:10036000000A03F10803EFD107EB8C070AF1010043
:100370001FFA80FA701E0604360C99D102B00020D4
:10038000BDE8F08F53EA020C00F069802DE9F04BD4
:100390004FF00006002B1FBFB3FA83F503FA05F4F4
:1003A00024FA05F65E4012BF1643B2FA82F502FA4D
:1003B00005F4C5F120051EBF22FA05FC44EA0C0431
:1003C000203556EA044C4FEA144418BF641C4FF021
:1003D00000084FF00009904271EB030C39D300295B
:1003E00019BFB1FA81F701FA07F6B0FA80F700FAFF
:1003F00007F6C7F120071EBF20FA07FC46EA0C06E5
:100400002037B6FBF4FCA7EB0507103F07F01F0BE6
:10041000CBF120062CFA06F60CFA0BFB44BFB346D0
:100420000026202FA4BF5E464FF0000B5BEA060CAF
:1004300008BF4FF0010B19EB0B0948EB0608ABFBAB
:10044000027C06FB02CC0BFB03CCC01B71EB0C0146
:10045000C1E70B46024641464846BDE8F08B13B55E
:100460004FF000004FF00001AFF30080BDE81C40EA
:10047000704710B5203AC0F00B80B1E81850A0E8E2
:100480001850B1E81850A0E81850203ABFF4F5AF62
:100490005FEA027C24BFB1E81850A0E8185044BFBE
:1004A00018C918C0BDE810405FEA827C24BF51F82B
:1004B000043B40F8043B08BF7047D20728BF31F81F
:1004C000023B48BF11F8012B28BF20F8023B48BF70
:1004D00000F8012B70474FF0000200B51346944618
:1004E0009646203922BFA0E80C50A0E80C50B1F18C
:1004F0002001BFF4F7AF090728BFA0E80C5048BFA0
:100500000CC05DF804EB890028BF40F8042B08BF3D
:10051000704748BF20F8022B11F0804F18BF00F839
:10052000012B704770477047704710B500F008F80E
:10053000006810BD10B5044600F002F8046010BD5C
:1005400000487047300000201FB584B000200A9C8E
:1005500006AB04AA02A90094AFF3008018B1DDE94C
:10056000020108B010BD0348204000F037F8002019
:100570000146F6E70000207C00487047300000206C
:100580007546FFF7F9FFAE4605006946534620F071
:100590000700854618B020B5FFF754FEBDE820409F
:1005A0004FF000064FF000074FF000084FF0000B2F
:1005B000AC46ACE8C009ACE8C009ACE8C009ACE89E
:1005C000C00921F007018D46704710B50446AFF30E
:1005D00000802046BDE81040FFF71FBE10B500F0B8
:1005E00009F8BDE81040AFF30080002801D000F00A
:1005F00057B8704710B5022803D0410103D50DA1AB
:1006000012E0002010BD010101D50FA10CE0C100D6
:1006100001D511A108E0810001D512A104E040003C
:1006200001D513A100E0002115A000F03FF8012042
:1006300010BD0000496E76616C6964204F70657270
:100640006174696F6E0000004469766964652042D8
:1006500079205A65726F00004F766572666C6F770D
:1006600000000000556E646572666C6F77000000D4
:10067000496E657861637420526573756C7400000F
:100680005349474650453A2041726974686D657414
:10069000696320657863657074696F6E3A20000045
:1006A00001491820ABBEFEE72600020070B50546E2
:1006B0000C460A2000E06D1C00F011F835B12878D6
:1006C0000028F8D102E0641C00F009F814B1207889
:1006D0000028F8D1BDE870400A20AFF3008008B5CB
:1006E00069468DF800000320ABBE08BD7047014687
:1006F000806B026C12F0500F03D0806BC26C084606
:1007000010470168026C42F4007202648A6812F0B9
:10071000405F1AD18269002A18BF00F02FBACA6A56
:1007200012F4700F02D08A6852050ED44A6822F083
:1007300020024A60016C21F480710164016CC904DB
:100740005EBF016C41F00101016400F017BA806BDB
:1007500040210164416C41F00401416400F010BA91
:10076000806B00F00CBA0000B0B5DFF83CE000216F
:10077000002200234FF0000C09E05EF80140A44481
:100780000EEB01040C31D4E9015422442B447829A6
:10079000F3D10A21B2FBF1F2B3FBF1F3BCFBF1F1AF
:1007A000C0E900138260B0BD94050020014800F04C
:1007B000E8B900BFE4000020FEE70000014800F0B7
:1007C0007FBC00BF9406002080B58AB000210122C2
:1007D0000E23CDE90311CDE90111CDE90612CDE9D2
:1007E00008230591044901F11C02C0E90C12694675
:1007F00000F004FC0AB080BD900000208B6DDFF893
:10080000ACC0CB65406B828AD2BA00EE102AB8EE3B
:10081000C00A81ED160A9CF80020F2B101EE103AF0
:100820009FED232A30EE411AB4EEC21AF1EE10FA0F
:1008300004DD91ED151ABFEE002A0AE09FED1D2A96
:10084000B4EEC21AF1EE10FA07DA91ED151AB7EE0E
:10085000002A31EE021A81ED151A01229FED161AB7
:100860008CF8002091ED152A02EE010A81ED110AA3
:10087000C28AD2BA00EE102AB8EEC00A81ED030A8D
:10088000828AD2BA00EE102AB8EEC00A81ED120AAE
:10089000028B12BA120CA1F88C20807E00EE100A96
:1008A000B8EE400A8CED010A704700BF2C01002011
:1008B00000409C4500409CC50000004610B5026801
:1008C00002EB0114D4F8B03113F0040C436BC3F8FD
:1008D00008C004F5D87CD4F8B0E119BF4FEADE02B5
:1008E0005A604FEA5E521A600029DCF8002002F0DC
:1008F0000202DA60D4F8B42102F00F021A61D4F8CF
:10090000B421C2F30722DA61D4F8B8214FF02004F1
:100910001A75026802EB0112D2F8B821436B4FEA54
:1009200012225A75026802EB0112D2F8B821436B09
:100930004FEA12429A75026802EB0112D2F8B8210E
:10094000436B4FEA1262DA75026802EB0112D2F8C9
:10095000BC21436B1A76026802EB0112D2F8BC216B
:10096000436B4FEA12225A76026802EB0112D2F868
:10097000BC21436B4FEA12429A76026802EB0112E5
:10098000D2F8BC21436B4FEA1262DA764FF01003C3
:1009900008BF0C2302680029D4506FF0100308BF71
:1009A0006FF0020351691940516190F83810222903
:1009B00013D1516921F480715161516921F40071A1
:1009C0005161516921F480615161516921F40061E3
:1009D0005161516921F40041516190F838100122B0
:1009E000322908BF122280F83820BDE8104000F0FC
:1009F000EFBC0000014800F057BD00BFD406002046
:100A0000014800F051BD00BF34070020014800F04C
:100A10004BBD00BF9407002001686FF00F0240F249
:100A2000FF3352FA81F2994318235F2AB2FBF3F2A3
:100A300003A388BF043181659A5CC265084670478C
:100A4000000610160006101680B5D0F800C0DCF8BD
:100A500000E02EF4802ECCF800E0CCF80430806862
:100A60004028084608BF1046CCF8080008BF0A46D0
:100A7000CCF80C2080BD70474FF4007000F0C2BE6F
:100A80007047000078B50022009290F83C20012ABF
:100A900001D102216BE0012280F83C20D1F800E076
:100AA0001FFA8EFCBEF10A0F4FEA4C0212FA8EF2C8
:100AB00004D303681E3A03F10C0402E0036803F157
:100AC000100407252668954026EA050525608D68EF
:100AD00005FA02F225682A4322604A68062A05D8E8
:100AE00002EB820203F13401053A0BE002EB8204CF
:100AF0000C2A87BF03F12C01A4F1410203F130015C
:100B0000A4F123021F240D6894400CFA02F225EA96
:100B100004040C600E6832430A60B349A1F54172C7
:100B2000934221D1BEF1120F04D10A6842F480022F
:100B30000A6019E02EF00102102A15D10A68BEF1F0
:100B4000100F42F400020A600ED10A490A4A0968ED
:100B5000B1FBF2F101EB8101490001E0009901399B
:100B6000009100990029F9D1002180F83C10084635
:100B700001B070BD2400002040420F007047704754
:100B80007047B0B5044600680268416892072CD5EA
:100B900011F0200129D0216CC9065EBF216C41F4FF
:100BA00000712164816811F0405F17D1A169A9B972
:100BB000C16A11F4700F02D0816849050ED44168F2
:100BC00021F020014160206C20F480702064206CB2
:100BD000C0045EBF206C40F0010020642046FFF797
:100BE000CDFF20686FF01201016002684168520772
:100BF00014D511F0800111D0216CC9065EBF216CA3
:100C000041F400512164816811F4401F26D0204630
:100C1000FFF736FF20686FF00C0101600268416841
:100C2000D20706D011F040011CBF01685FEAC17114
:100C300035D10268416892060FD511F0806108BF76
:100C4000B0BD616C6FF0200541F002016164056088
:100C50002046FFF795FF20680560B0BD816B11F459
:100C6000401F02D081684905D1D441684905CED4DE
:100C7000816811F0405FCAD1A1690029C7D14168DC
:100C800021F080014160206C20F480502064206CB1
:100C9000C0055EBF206C40F001002064B7E7206C07
:100CA00040F480302064204600F0A6F820686FF001
:100CB00001010160BDE70000002842D010B50446E4
:100CC000006C30B9002084F83C006064204600F0DD
:100CD00095F8206CC00636D4206C41F20211434BCB
:100CE0008843023020644048016821F440310160AB
:100CF00061680268114301602068416821F48071D5
:100D000041602169426842EA01214160416821F065
:100D100040714160A168426811434160816821F4DB
:100D200000618160E168826811438160A16A826824
:100D300022F0706299428260826806D122F04051AE
:100D40000CE00120704701204AE011438160816876
:100D500021F040518160E16A8268114381608168BD
:100D600021F002018160A169826842EA410181604B
:100D7000226A41686AB141F400611D4A41604168DC
:100D800021F460414160616A02EB413142681143E4
:100D900001E021F400614160164AC16A21F470014A
:100DA000C162E16902EB0151C26A1143C16281680B
:100DB00021F400718160216B826842EA41218160E7
:100DC000816821F4806181606169826842EA8121E1
:100DD0000122816000206064216C62F301012164C2
:100DE000002184F83C1010BD042301400100000FD5
:100DF00000E0FFFF0000F0FF704700002DE9F04128
:100E000086B004460068664FB8423DD100262048AF
:100E100003250DF104080196016841F48071016019
:100E20004146006800F48070019001980396029595
:100E30000420019007F5684000F0EEFC07F56440DF
:100E400041460396CDE9015500F0E6FC114D124FE5
:100E50004FF480704FF480414FF480524FF4806320
:100E6000C5E90866C5E90076C5E90266C5E9043248
:100E7000C5E90610284600F0CFFB18B107487721D6
:100E800002F0A1F8A563AC6306B0BDE8F08100BF35
:100E900044380240D406002010640240185500086F
:100EA000BCB504460020019094F83C00012801D113
:100EB000022069E0012013460A4684F83C002168BC
:100EC0008868C00711D18868314D40F00100886002
:100ED0002E480068B0FBF5F000EB400001E00198FF
:100EE0000138019001980028F9D18868C0074AD0DC
:100EF000206C40F20175A84300F5807020644868BA
:100F0000400504D5206C012565F30D302064206C6C
:100F10004FF0000C1F4DC0044FF0000044BF606C48
:100F200020F0060084F83CC06064DFF86CC0A06B61
:100F3000C5641A4DC0E90F5C6FF022050D604D6865
:100F400045F080654D608D6845F480758D604C314D
:100F500000F0F6FB1248D0F804232168D2060AD02C
:100F6000814210D1816811F0405F0CD1816841F05D
:100F70008041816007E0886810F0405F03D1886895
:100F800040F080408860002002B0B0BD2400002006
:100F900040420F004F07000861070008EF060008F5
:100FA00000200140B0B5044690F83C00012804BF81
:100FB0000220B0BD0120002584F83C00216888682B
:100FC00020F0010088608868C0074FF0000011D150
:100FD000886820F480708860A06B00F020FA216897
:100FE0004A6822F080624A6041F20112216C91430A
:100FF0000131216484F83C50B0BD0000B0B52E48EA
:101000004C69026842F001020260026822F47C52DC
:1010100002604A6A036843EA022202600122C3694D
:10102000A2406FEA020C9343C361CB69012B0ED03F
:1010300013BBC36800EBC40E03EA0C03C360CB68A8
:101040008D8845EA0343CEF840308E460CE0C368F5
:1010500000EBC40E1343C3600D688B8843EA05435D
:10106000CEF8403001F10C0E00EBC4038C68BEF8E2
:10107000005045EA04455D648B69456845EA020411
:10108000002B08BF05EA0C0444600B69012B04D057
:1010900033B9436903EA0C0301E043691343436135
:1010A000096A012902BFC1691143C161016821F0C8
:1010B000010101600020B0BD0066004070470000E3
:1010C000B0B5044600684169C90736D08368534DFE
:1010D000826881682B40AB4207D04E4B1A409A423F
:1010E00003D04D4A1140914227D1416921F00101BD
:1010F000416194F83810122913D1416921F48071AB
:101100004161416921F400714161416921F48061CB
:101110004161416921F400614161416921F400416B
:10112000416194F8380001213228204608BF22216D
:1011300084F8381000F072F92068C268416992079B
:1011400018BF11F0020104D020460021FFF7B6FBC2
:10115000206802694169920718BF11F0100104D09C
:1011600020460121FFF7AAFB206883694269416993
:10117000DB0718BF12F4807206D011F400411EBFC5
:10118000E16B41F00101E1638369426941699B07B9
:1011900008D512F400721FBF11F40041E16B41F059
:1011A0000201E1638369426941695B0708D512F472
:1011B00080621FBF11F40041E16B41F00401E16363
:1011C00083694269416913F0700F15D012F400620F
:1011D00018BF11F400410FD0816901F0700110397E
:1011E0005F2905D889080EA25158E26B1143E163CB
:1011F000816921F070018161E16B49B10421416095
:10120000012084F838002046BDE8B040FFF756BF03
:10121000B0BD00BF0003000800000310030000047D
:101220000800000010000000200000004000000046
:101230008000000000010000B0B570B3044690F8D3
:10124000380028B9002084F83900204600F080F8E2
:10125000022084F838002068016821F00201016052
:10126000016841F00101016000F0A2FB0546206821
:101270004168C9070BD100F09BFB401B0B28F6D33C
:10128000002084F83900032084F83800B0BD41689C
:10129000C90704D1042084F838000120B0BDA16939
:1012A0000268251D22F08003012908BF42F0800357
:1012B0000360E169026822F04003012908BF42F09F
:1012C00040030360216A026822F02003012908BF5D
:1012D00042F020030360616A026822F010030129D2
:1012E00008BF42F010030360A16A026822F00803FD
:1012F000012908BF42F008030360E16A026822F096
:101300000403012908BF42F0040303602ECD1A43F1
:1013100063692A4301391A431143C161016821F00D
:101320000101016000F044FB054620684168C907DF
:1013300005D000F03DFB401B0B28F6D3A0E740682A
:10134000C007A7D100200121E06384F83810B0BDA8
:101350002DE9F04786B01C4D04460068A5F5D43150
:1013600088422ED14FF0000818484FF009094FF07D
:10137000030A022701AECDF80480016841F0007134
:1013800001603146006800F0007001900198CDF8CE
:101390001490CDF810A001200390CDE90107284654
:1013A00000F03AFA28463146CDF81490CDE9038A88
:1013B000CDE9017700F030FA2068416941F002017F
:1013C000416106B0BDE8F087000C024040380240A1
:1013D00010B50F4CA04218BF10BD606B816889B971
:1013E000C16879B9006840F20621884206D040F20F
:1013F0000521884206D10648074901E0044805490D
:10140000FFF7FCF92068416941F00201416110BD1C
:1014100094060020C808002058090020704770B5C5
:10142000866D044600F0C4FA054694F8350002289B
:101430002AD12068016821F016010160416921F07C
:1014400080014161216C09B9A16C19B1016821F0D9
:1014500008010160016821F00101016005E000F070
:10146000A7FA401B052816D820680068C007F6D1E7
:10147000E06D3F2101FA00F0B060012084F83500F2
:10148000002084F8340070BD002084F834008020EF
:101490006065012070BD20206065002084F8340064
:1014A000032084F8350070BDF8B5044600200821FB
:1014B000009058480568D4E9166037688140394281
:1014C0000CD0226813685B0708D5136823F0040367
:1014D0001360B160616D41F00101616501218140DE
:1014E000394208D022685269120604D5B160616D94
:1014F00041F00201616504218140394208D022682F
:101500001268920704D5B160616D41F00401616514
:1015100010218140394217D020680268120713D584
:10152000B16002680168520306D4C9055EBF016854
:1015300021F00801016001E0080301D4216C00E002
:10154000A16C09B120468847E16D202000FA01F224
:101550003A423BD020680368DB0637D5B26094F886
:1015600035300268052B19D122F01602026042695B
:1015700022F080024261226C0AB9A26C1AB10268A0
:1015800022F0080202603F208840B060012084F809
:101590003500002084F83400216D37E001685203E3
:1015A0000CD4C9050ED4016821F01001016001209E
:1015B00084F83500002084F8340003E0080301D4E7
:1015C000616C00E0E16B09B120468847606D00B3B3
:1015D000606DC00719D005214FF4165084F83510FE
:1015E000B5FBF0F021680A6822F001020A60009A57
:1015F00001328242009202D80A68D207F7D1012054
:1016000084F83500002084F83400E16C09B12046EC
:101610008847F8BD240000202DE9F041044600F081
:10162000C7F9002C4FD00546022084F83500002071
:1016300084F834002168086820F00100086005E0A3
:1016400000F0B6F9401B052840D821680868C0079B
:10165000F6D10868394AD4E9013504F10C0800EAEA
:10166000020C98E8C101D4E9072E43EA0C032B438E
:101670001843636A30433843042B40EA080040EAC9
:10168000020040EA0E0225D1D4E90BE042EA0E0244
:10169000BEF1000F40EA0200086051F8140FA26A80
:1016A00020F0030040EA020040F0040C19D0B8F525
:1016B000005F28D0B8F1000F35D1022A36D0012AB8
:1016C0002BD09AB30DE00120BDE8F0810325202343
:1016D000032013E00A6051F8140F20F0070040EADD
:1016E000030C2046C1F800C0FFF796F9E16D3F22D8
:1016F0000023012502FA01F181600020636584F86E
:101700003550BDE8F081032AEBD8012540230120A4
:10171000DFE802F0020C0203F0E7AEF1C070B0FAAD
:1017200080F0400904E0032A04D3DAD1CEF300604C
:101730000028D6D0012540230120DFE73F8010F0AC
:10174000B0B5044690F8340001282CD00120A56DD6
:1017500084F8340094F83500012821D1022084F85F
:101760003500002060652046FFF76EF9E06D3F21EF
:1017700001FA00F0A8602068016841F016010160DC
:10178000416941F080014161216C19B1016841F06A
:1017900008010160016841F0010101600020B0BD55
:1017A000002084F834000220B0BD0000B0B504462B
:1017B00000F0FEF80546A048611C007818BF0444FC
:1017C00000F0F6F8401BA042FAD3B0BDB0F5007FA0
:1017D00018BF704710B500F0EBF8084C2168401AAC
:1017E000B0F5FA7F03D9064801784942017000F04C
:1017F000DFF82060BDE81040704700BF9001002076
:101800002800002003490A68024214BF086070479C
:10181000FFF7DCBF143C01402DE9F84F5B4A4FF065
:10182000080A4FF0010B4FF000084FF0000E9042F5
:10183000574A08BF4FF0070A02444FEAB223072B6A
:1018400038BF4FEAB22A0022102A08BFBDE8F88F3D
:101850000B680BFA02F6334200F091804B6843F0BC
:101860001004122C13D16FF003040EF01C030F2789
:1018700004EA520507FA03FC05442C6A24EA0C0C1E
:101880000C6904FA03F343EA0C032B624B68032749
:1018900003F00305122B07FA08F4076805FA08F5A8
:1018A0006FEA040C27EA040747EA0507076013D824
:1018B0000BFA03F414F0061F0ED08468CD6804EA16
:1018C0000C0405FA08F52C438460C3F30014456842
:1018D0009440B5432C434460C4688D68DB0004EA3F
:1018E0000C0705FA08F547EA0507C76047D5002346
:1018F000284C0EF00C050093284BA4461F461B688D
:1019000043F480433B603B6803F48043009322F040
:1019100003032344224C009FA1461F590F24AC40CF
:101920000AFA05F5A7432F4343F80970DCF80030A5
:101930004D6843EA0607EC0358BF23EA0607CCF8D4
:101940000070AC03DCF8043043EA060758BF23EA12
:101950000607CCF80470EC02DCF8083043EA06070E
:1019600058BF23EA06070C4BCCF80870AD021C46A2
:101970001B6843EA060758BF23EA0607276008F1F9
:1019800002080EF1040E01325EE700BF001C0240A7
:101990000000FEBF003C01400C3C014044380240C6
:1019A00008FCFFFF002A08BF09048161704700009E
:1019B00005480068704700BF1F48034900780A685F
:1019C00010440860704700BFB80B002080B50B487A
:1019D000016841F400710160016841F480610160B7
:1019E000016841F480710160032000F053F8002089
:1019F00000F006F800F022F8002080BD003C024014
:101A000070B50D4E04464FF47A713078B1FBF0F0AA
:101A10007C490968B1FBF0F000F0B8FB01250F2C00
:101A200008D838B94FF0FF3021460022002500F0D9
:101A300013F87460284670BD000000207047000055
:101A400000F01F010122400902FA01F1014A42F8A7
:101A50002010704700E100E080B5144B1B68C3F311
:101A6000022CBCF1030E8CF007034FF0FF3C38BF93
:101A70004FF0000E042B28BF04230CFA03F3994304
:101A80000CFA0EF301FA0EF19A431143BDE88040BF
:101A900000F0D8BF05494FF6FF030A681A4060F30B
:101AA0000A22034810430860704700BF0CED00E0B5
:101AB0000000FA052DE9F041002800F08380434B37
:101AC00004468846D3F8000400F00F00884207D28D
:101AD00083F80084D3F8000400F00F00404571D172
:101AE0002068810711D5410742BF996841F4E05150
:101AF0009960010742BF996841F460419960996813
:101B0000A26821F0F00111439960C0072AD06068F3
:101B1000811E022903D21968890109D452E00128E3
:101B200003D11968890303D44CE01968890749D5A2
:101B300099681D4621F0030108439860FFF738FFBC
:101B4000064641F28837A86861682B4600F00C0011
:101B5000B0EB810F06D0FFF72BFF801BB842F2D904
:101B6000032430E0D3F8000400F00F00404507D90B
:101B700083F80084D3F8000400F00F00404521D121
:101B80002068410705D59968E26821F4E0511143C6
:101B90009960000706D59868216920F4604040EA02
:101BA000C10098601C4600F033F8A168084A002480
:101BB000C1F30311515CC840124908600020FFF7CF
:101BC0001FFF00E001242046BDE8F08100380240FC
:101BD000684C00080B480068704700BF09480A4974
:101BE0000A4A00680968C1F38221515CC840704705
:101BF00004480549054A00680968C1F34231515C4F
:101C0000C84070472400002008380240784C000883
:101C100010B5134C606800F00C00082804D00428AC
:101C200014BF1048104810BD2268206800234002ED
:101C300002F03F020C485CBF42F20040C0F2F400E8
:101C40002168C1F38811A0FB0101FEF79BFB21680D
:101C50000222C1F3014102EB4101B0FBF1F010BDE2
:101C6000043802400024F400001BB7002DE9FC41B9
:101C7000002800F0058104460078AF4EC0072FD041
:101C8000B06800F00C00042823D0B06800F00C000D
:101C9000082802D1706840021BD46768B7F5803FFE
:101CA00007D03068B7F5A02F40F00B8140F48020BA
:101CB0003060306840F480303060FFF779FE0546D0
:101CC000306880030CD4FFF773FE401B6428F7D9FB
:101CD0009DE03068800303D56068002800F0D08064
:101CE000207880072BD5B06810F00C0F07D0B068B3
:101CF00000F00C00082809D17068400206D4306852
:101D0000800715D5E068012812D0B9E0E1688B485A
:101D100000297ED001210160FFF74AFE05463068A8
:101D2000800705D4FFF744FE401B0228F7D96EE078
:101D30003068216920F0F80040EAC1003060207866
:101D4000000721D5606978B17C480121C0F8801E68
:101D5000FFF72EFE0546706F800715D4FFF728FEAB
:101D6000401B0228F7D952E074480021C0F8801EB9
:101D7000FFF71EFE0546706F800705D5FFF718FEBA
:101D8000401B0228F7D942E02078400770D5306C1C
:101D90004FF00008C0000CD4CDF804804FF00108CB
:101DA000306C40F080503064306C00F08050019016
:101DB0000198634F3868C0050FD4386840F48070CC
:101DC0003860FFF7F5FD05463868C00505D4FFF714
:101DD000EFFD401B0228F7D919E0A768012F05D0B5
:101DE000306F052F25D140F004003067306F40F090
:101DF00001003067FFF7DCFD054641F28837306FA0
:101E000080072ED4FFF7D4FD401BB842F7D903203A
:101E100037E000210160FFF7CBFD05463068800701
:101E20007FF58DAFFFF7C4FD411B03200229F5D9D3
:101E300027E020F001003067306F20F004003067A9
:101E4000FFF7B6FD0546002FD7D141F28837306F36
:101E5000800706D5FFF7ACFD411B0320B942F6D938
:101E60000FE0B8F1000F1EBF306C20F080503064DE
:101E7000A769002F5DD0B06800F00C00082803D1DE
:101E8000012002B0BDE8F0812C4900208846086698
:101E9000FFF78EFD0546022F09D13068800128D555
:101EA000FFF786FD411B03200229F6D9E9E73068D8
:101EB00080013ED5FFF77CFD411B03200329F6D3AB
:101EC000DFE720F480303060306820F4802030601C
:101ED000FFF76EFD0546002F7FF4F2AE30688003F9
:101EE0007FF5FEAEFFF764FD411B03206429F5D9A1
:101EF000C7E704F11C078FCF0843D90340EA8210DB
:101F00004FF6FF72914340EA0760A1F58031084324
:101F100070600120C8F86000FFF74AFD0446306891
:101F2000800106D4FFF744FD011B03200229F6D9E6
:101F3000A7E70020A5E700BF0038024000004742A5
:101F40000070004070B5C8B3002605464FF0000C85
:101F5000866290F8510030B9284685F8506000F04C
:101F600031F8D5F828C0022185F8511029680A688F
:101F700022F040020A60D5E90123D5E903041A439F
:101F800010436A6920431043AA6902F4007318439E
:101F9000EB6918432B6A184340EA0C0008600420E0
:101FA00000EA12406A6A10434860C86920F4006081
:101FB000C86101206E6585F8510000E001263046B9
:101FC00070BD000001681148814218BF7047FEB51E
:101FD00000210F4A00F550400191136843F48053EB
:101FE0001360126802F480520192019A0522059250
:101FF0000322CDE9031202210291E021019101A9FE
:10200000FFF70AFC06B0BDE8804070470030014091
:10201000443802402DE9FE43044690F85000012860
:1020200001D102208AE04FF001091D4616460F46F5
:1020300084F85090FFF7BCFC804694F851000128CA
:1020400049D10120002F74D0002E72D0032084F8D3
:10205000510000206065E686A6862763A087A063FE
:10206000C4E91000E087A1682068B1F5004F02BF05
:10207000016841F480410160016849065EBF016862
:1020800041F040010160E2686168B2F5006F24D15F
:1020900011B1E18E012905D137F8021BC160E08E34
:1020A0000138E0866E1C12E020688168890708D438
:1020B0006EB1EDB3FFF77CFCA0EB0800A84206D39D
:1020C00036E037F8021BC160E08E0138E086E08E12
:1020D0000028E9D123E002202BE011B1E18E012993
:1020E00005D117F8011B0173E08E0138E0866E1CE4
:1020F00012E020688168890708D46EB1C5B1FFF786
:1021000057FCA0EB0800A84206D311E017F8011B0A
:102110000173E08E0138E086E08E0028E9D1204688
:10212000022101222B46CDF8008000F0B0FC40B126
:102130000320002184F8501084F8519003B0BDE8CA
:10214000F08320462946424600F08FFC18B120203B
:1021500060650120EDE7A06838B900200290206892
:10216000C1680291806802900298606D002818BFD3
:102170000120DEE70D4904280A6822F0040308BFA5
:1021800042F004030B60704770470000411E0020BE
:10219000B0EB116F1CBF01207047044AF02351605F
:1021A00003490B70072190601160704710E000E058
:1021B00023ED00E0FFF7E8BF7047704790F8383034
:1021C0000222012B1AD080F839200268536823F0CC
:1021D00070035360D1F800C0536843EA0C035360A6
:1021E000936823F080039360496893681943916072
:1021F0000022012180F8382080F8391010467047FD
:10220000B0B110B5044690F8390028B9002084F820
:102210003800204600F00EF80220211D84F8390015
:10222000206800F08BFD012084F83900002010BDEB
:102230000120704700680949884218BF704781B083
:10224000002000900648016841F00201016000682A
:1022500000F002000090009801B0704700040040B8
:10226000403802400068C16841F00101C160016866
:1022700041F0010101600020704710B590F838204E
:1022800004460220012A08BF10BD84F8390001204D
:102290004FF6777384F83800206882689A4382602A
:1022A0000A68BAB1102A1BD0202A1FD0302A23D0A6
:1022B000402A27D0502A31D0602A3BD0702A45D0FE
:1022C000B2F5005F51D0B2F5805F5DD1816821F039
:1022D000070158E0816841F0070121F0700152E0E8
:1022E000816841F0170121F060014CE0816841F004
:1022F000270121F0500146E0816841F0370121F0CB
:10230000400140E04B68CA68194600F07BFD206838
:10231000816841F0470121F0300134E04B68CA6820
:10232000194600F06FFD2068816841F0570121F0E7
:10233000200128E04B68CA68194600F074FD206847
:10234000816841F0670121F010011CE0D1E901230F
:10235000C9681A4342EA0121826822F47F4211438C
:102360008160816841F077010DE0D1E90123C968FE
:102370001A4342EA0121826822F47F4211438160BC
:10238000816841F4804181600020012184F8380097
:1023900084F8391010BD704710B504460068016913
:1023A000890744BFC1685FEA817138D40169490770
:1023B00044BFC1685FEA41713DD40169090744BF68
:1023C000C1685FEA017143D40169C90644BFC168AD
:1023D0005FEAC16148D40169C9071CBFC1685FEAEF
:1023E000C1714ED10169090644BFC1685FEA01614C
:1023F0004FD40169490644BFC1685FEA416150D4C6
:102400000169890646BFC1685FEA816110BD6FF04E
:10241000200101612046BDE81040FFF7CEBE6FF0FD
:1024200002010161012121768069800741D02046A7
:10243000FFF7B1FF43E06FF0040101610221217653
:10244000806910F4407F3ED02046FFF7A4FF40E0B3
:102450006FF00801016104212176C06980073CD03A
:102460002046FFF798FF3EE06FF010010161082160
:102470002176C06910F4407F39D02046FFF78BFFEA
:102480003BE06FF001010161204600F03CF820685C
:10249000A8E76FF0800101612046FFF78DFE2068FC
:1024A000A7E76FF040010161204600F02DF8206899
:1024B000A6E7204600F025F8204600F023F800208B
:1024C0002076206872E7204600F01BF8204600F0D6
:1024D00019F80020207620686FE7204600F011F8F8
:1024E000204600F00FF80020207620686CE7204698
:1024F00000F007F8204600F005F80020207620685C
:1025000069E7704770477047704750B310B504468D
:1025100090F8390028B9002084F83800204600F0EF
:1025200023F8242084F839002068C16821F4005180
:10253000C160204600F088FC2068016921F49041C8
:102540000161416921F02A014161C16841F40051F2
:10255000C16000202021E06384F8391084F83A102B
:1025600010BD0120704700002DE9F04786B00446F9
:1025700001682B4881424FD100272A4900F5744059
:1025800001970A6842F010020A60096801F0100120
:1025900001910199072105910321049101210391E2
:1025A00002210291C021019101A9FFF735F91F48CD
:1025B0001D4D4FF000694FF480681421C5E90009F2
:1025C000824605F11400C5E90277C5F81080FDF7D1
:1025D00082FF2846FFF720F818B1FA48432100F09F
:1025E000F2FC134E0AF1780165634020C6E9001938
:1025F00006F1080181E8810106F114001421AC63A1
:10260000FDF769FF3046FFF707F818B1ED4855218F
:1026100000F0D9FC2663B46306B0BDE8F08700BFC4
:10262000001001404438024034070020406402405A
:1026300094070020FEE700F12C01C1EC030A002101
:1026400080ED0E0A80ED002AC0E90511C1617047D6
:102650007FB5284C2849294B01254FF480320326A9
:10266000204640F8141F0021C0E90A310563C0E983
:10267000012100F11402C0E9031562C20162FEF7F4
:102680001BFB18B11E482A2100F09DFC0C201434BD
:10269000CDE90156694600902046FEF7F3F918B1DE
:1026A0001748342100F08FFC01250220694602956D
:1026B0000190082000902046FEF7E4F918B1104878
:1026C0003E2100F080FC032002956946019009201C
:1026D00000902046FEF7D6F918B10948492100F0CC
:1026E00072FC2046FEF75EFC064920461E22FEF7DD
:1026F000D7FB7FBDD0000020002001400100000F6B
:10270000185500089405002010B50F48012100223B
:102710000E4C4FF4A00C4FF45023C0E90821C0E93F
:102720000A210221C0E90041C0E90222C0E9043CBB
:10273000C0E90622FEF780FD28B105A01A21BDE8F8
:10274000104000F040BC10BD940600200064004022
:102750002E2E2F4150502F5372632F63616E2E63C4
:102760000000000081B0002000904F48016841F453
:1027700080010160006800F480000090009801B0C2
:10278000704700BF2DE9F04786B000274648474D07
:10279000DFF81C9101AC4FF001084FF4007A01976B
:1027A000016805F5806641F001010160016801F0F2
:1027B0000101019101990197016841F00201016055
:1027C000016801F00201019101990197016841F04E
:1027D00004010160016801F0040101910199019770
:1027E000016841F008010160016801F008010191F0
:1027F00001990197016841F010010160016801F041
:102800001001019101990197016841F020010160D7
:10281000016801F02001019101990197016841F0DF
:1028200040010160016801F04001019101990197A7
:10283000016841F0800101602146006800F08000DD
:10284000019001980497022003903046CDF808804B
:10285000CDF804A0C84730464FF400710022FFF7BE
:10286000A1F82846122100221226FFF79BF82846DD
:102870002146CDE90377CDE90168C8470D4805F544
:10288000805503972146CDE901A02846C84704207A
:102890000497CDE90287214601902846C84706489B
:1028A000076006B0BDE8F087303802400000024003
:1028B00019180008000021108802424280B5104813
:1028C0000023104A0A214FF4827C4FF0280EC0E901
:1028D0000833C0E90A314FF40071C0E9002CC0E9A7
:1028E0000233C0E90433C0E9061EFFF72BFB28B111
:1028F00005A01921BDE8804000F065BB80BD00BF88
:10290000F4070020003001402E2E2F4150502F534D
:1029100072632F7370692E630000000010B586B0DB
:102920001648174C42F2CF03002140F2E732C0E9CB
:102930000043C0E902120161FFF762FC18B11148BF
:10294000142100F040FB4FF4805002A90290FA4895
:10295000FFF793FC18B10B481A2100F034FB00205C
:102960006946CDE90000F448FFF728FC18B1054896
:10297000212100F028FB06B010BD00BF4C0800204C
:1029800000040040F454000810B50C480C4C4FF4FF
:10299000E13300210C22C0E90043C0E90211C0E983
:1029A0000412C0E90611FFF7B0FD28B105481B214C
:1029B000BDE8104000F007BB10BD00BF8808002034
:1029C0000010014005550008FEE790ED002A32EEA8
:1029D000000AB4EEE00AF1EE10FAC8BFB0EE600AE9
:1029E000B4EEC10AF1EE10FAB8BFB0EE410A80EDC4
:1029F000000A704790ED002A32EE000AB4EEE00AB9
:102A0000F1EE10FAC8BFB0EE600AB4EEC10AF1EE02
:102A100010FAB8BFB0EE410A80ED000A704700F12D
:102A20001C0181EC030A00F16401C1EC032A80ED72
:102A30000E2AC0ED0F1AC0ED204A80ED214A7047E2
:102A40007047000010B5074C00F00F020028044B3F
:102A500004444FEA0110B8BFD418207010BD00BF65
:102A600014ED00E000E400E07047BCB50B460092B6
:102A7000802100220546002400F009F820B1686D8D
:102A8000032440F020006865204602B0B0BD2DE967
:102A9000F843DDF820801D4616460F4681465C1C33
:102AA000D9F8000081683940C91BB1FA81F14909A0
:102AB000B14235D0002CF3D03DB1FEF779FFA0EB49
:102AC0000800A842ECD3D9F80000416821F0E001E9
:102AD0004160D9F80410B1F5827F0BD1D9F8081004
:102AE000B1F5004F02D0B1F5806F03D1016821F03C
:102AF00040010160D9F82810B1F5005F08D10168E4
:102B00004DF6FF7211400160016841F4005101600F
:102B1000002089F85000012089F85100032000E0CE
:102B2000002001B0BDE8F08370470000B0B51D4C37
:102B3000142000210122A0471B4D1420A847252066
:102B400001210022A0472520A847122002210122AE
:102B5000A0471220A8471D2000210222A0471D20C7
:102B6000A847172001210522A0471720A8473A208F
:102B700001210022A0473A20A8473A200221022240
:102B8000A0473A20A847462002210322A04746201A
:102B9000A847382001210322A04738202946BDE854
:102BA000B0400847591A0008411A000880B5FEF7DE
:102BB00003FFBDE88040FFF7FDBA0000B0B592B05A
:102BC0000024264802250694016841F080510160E6
:102BD000006800F08050069006980694204801682E
:102BE00041F480410160006800F48040069006983E
:102BF000042011904FF4A87010950F9019200E909A
:102C00004FF48000CDE90C504FF480300790012044
:102C1000069006A8FFF72AF84FF48050052105908A
:102C20004FF4A05004900F20CDE90254019001A868
:102C3000FEF740FFFEF7CEFF4FF47A71B0FBF1F0E4
:102C4000FFF7A4FA0420FFF795FA4FF0FF300021B8
:102C50000022FEF701FF12B0B0BD00BF40380240B5
:102C60000070004010B50E480F4CD0F8801041F4B1
:102C70007001C0F880100B490A6842F001020A6036
:102C800000228A600B6823400B60084B4B600B6886
:102C900023F480230B60CA604FF00061016010BD17
:102CA00008ED00E000380240FFFFF6FE103000247F
:102CB000084A094B0021C0E90111C0E90311C0E92C
:102CC0000533C0E90733C0E90922C0E90B22C0E996
:102CD0000D227047A5D468530000704110B52DED4A
:102CE000028B90ED002AD0ED010A90ED038A90ED61
:102CF000043A90ED021A044608EE202A80ED002ADC
:102D000068EE031A32EE400A00F0D8F994ED011A89
:102D100008EE001A84ED011ABDEC028B10BD0830DC
:102D200080EC030A7047000080B500F047FF0248BE
:102D3000BDE88040FFF730BB4C0800200268B0F1CE
:102D4000804F0ED0244B98420BD0244B984208D091
:102D5000234B984205D0234B984202D0224B9842F5
:102D600003D14B6822F070021A43B0F1804F20D09B
:102D7000194B98421DD0194B98421AD0184B9842C3
:102D800017D01A4B984214D0194B984211D0194BB6
:102D900098420ED0144B98420BD0124B984208D058
:102DA000154B984205D0154B984202D0144B9842CF
:102DB00003D1CB6822F440721A430260094B8A683F
:102DC000C2620A68826240F480629A4204BF096962
:102DD0000163012141617047000400400008004088
:102DE000000C0040000401400000014000180040B9
:102DF000001C00400020004000400140004801400D
:102E000000440140D0F820C0036A23F001030362AC
:102E1000836923F0F00343EA021282612CF00A0274
:102E2000114301627047036A23F010030362836950
:102E300023F4704343EA0232036A826123F0A00262
:102E400042EA0111016270472DE9F047044600682B
:102E50000169E26821F44051114349F20C620161B9
:102E6000C1689143A268D4E90437E6691143B6F515
:102E7000004F41EA030141EA070141EA0601C1604E
:102E80004169A26921F4407141EA020141614A4964
:102E900040F480603FD188420CBFDFF820A1DFF80A
:102EA00020A1D047D4F804908046D04767680646F2
:102EB000D047616819257F00684306FB05F3490088
:102EC000B3FBF7F3B0FBF1F06421B0FBF1F202FBCE
:102ED0001102181A4FEA49031044322202EBC000D3
:102EE0004FF4F872B0FBF1F002EA400008FB05F283
:102EF000B2FBF3F2B2FBF1F100EB0116D0476168CF
:102F000068434900B0FBF1F7D04761686843072286
:102F1000032349003CE0884214BFDFF8A4A0DFF897
:102F20009CA0D047D4F804908046D04767680646F6
:102F3000D04761681925BF00684306FB05F3890087
:102F4000B3FBF7F3B0FBF1F06421B0FBF1F202FB4D
:102F50001102181A4FEA89031044322202EB0010C2
:102F600008FB05F2B0FBF1F0B2FBF3F200F0F00069
:102F7000B2FBF1F100EB0116D047616868438900AC
:102F8000B0FBF1F7D047616868430F220423890042
:102F9000B0FBF1F0391A6427B0FBF7F505FB170019
:102FA0000844216898403230B0FBF7F010403043BD
:102FB0008860BDE8F08700BF00140140F11B0008E5
:102FC000DD1B0008FEE7FEE710B5234C04F1080006
:102FD000FDF7CAFB608830B1217891B1013001045E
:102FE00060800ED113E0226940F6B83101208A4298
:102FF0004FF0010103D8B2F57A7F2AD20221608016
:103000002170013081B2282988BF00206080A0880B
:1030100038B16178B1B101300104A08008BF10BDA2
:1030200010E0E26840F6B83101208A424FF0010119
:1030300006D8B2F57A7F22BF0020607010BD022151
:10304000A0806170013081B2282988BF0020A08053
:1030500010BD00202070DAE7D000002010B5044633
:103060000420FFF787F81448046010BD10B504462B
:1030700004E04FF47A7000F005F8013C002CF8D120
:1030800010BD000080B50B490B4A0023D1F800C0E9
:10309000126802FB00FE48684A689042FCD0034474
:1030A00090421046A3EB020398BF6344734528BFC8
:1030B00080BDF1E714E000E09006002080B52DED22
:1030C0000C8BB0EE40AAB2EE000A21EE21CAB0EE9F
:1030D00061BAB0EE419AB0EE608A00EEA1AA21EE8C
:1030E000000AB0EECADA20EE0D0A0CEE0C0A10EE61
:1030F000100A01F009FB41EC100B00F0E1FD2CEE91
:103100000B1AB4EEC1DAF1EE10FA0FDD51EC100B30
:1031100000F014FE00EE100AB5EEC0AA30EE4C0A24
:10312000F1EE10FA05DDB7EE001A07E08AEE0B1A91
:103130000AE0ACBF9FED151ABFEE001AB6EE002AEA
:1031400020EE010A20EE021A31EE081AB1EE490A09
:10315000B0EEC12AB4EECC2AF1EE10FA07DDB5EEDE
:10316000C01AF1EE10FA07DDB7EE001A09E021EE01
:10317000000A80EE0C0A06E0ACBF9FED041ABFEE19
:10318000001A21EE000ABDEC0C8B80BD000000008F
:103190000D4A4FF0000CBCF1080F08BF7047002328
:1031A0000CE0012806D000281ABF12F83310C943DA
:1031B000002100E0FF2102F833100133802BF0D111
:1031C00001320CF1010CE6E79401002010B53848FB
:1031D0000178022907D001290CD10021017035495D
:1031E0000878013804E00021017032490878013084
:1031F000087001E02F480078C0B2052817D32D4889
:103200000121017037A20020002100F059FC2C4A56
:103210002A4C01200021A0472D4A02200021A0476E
:10322000284A032000212346BDE8104018470428FF
:1032300088BF10BDDFE800F0040327170700E1E7AF
:103240001C48042101701C4A1C4C00200021A0478E
:103250001B4A01200021A0471D4A02200021A0474F
:103260001EA203201EE0144A144C00200021A04797
:10327000134A01200021A047124A03200021A04741
:1032800011A202200EE00C4A0C4C00200021A047A5
:103290000F4A02200021A0470A4A03200021A0472C
:1032A0000CA201200021BDE8104000F009BC00BFC5
:1032B000D00000202000002031550008613B0008AC
:1032C0003D55000829550008466972650000000058
:1032D00037550008446973740000000052656C6F34
:1032E000616400004D6F6465000000002DE9F84343
:1032F000314F05460C4601F10C030C30022101222E
:10330000B84705F1140004F1140302210122B84763
:1033100005F11C0004F11C0302210122B84705F14C
:10332000240904F17403022102224846B84705F13A
:103330002C0804F18403022102224046B84705F11B
:10334000440004F1940302210222B84705F14C0025
:1033500004F1A40302210222B84705F1540004F14C
:10336000440302210222B84705F15C0004F1240362
:1033700002210222B84705F1640004F1340302215E
:103380000222B84705F1340604F154030221022257
:103390003046B84748463146FCF76AFF3C3504F1F1
:1033A0006403022102222846B84740462946BDE868
:1033B000F843FCF75DBF00BF69020008DAB0FEF712
:1033C00005FBFFF7FBFBA820FFF748FEFFF7DAF944
:1033D00000200026FFF7DCFEFFF770FA00F09EFAEF
:1033E00000F020FAFFF7BEF9FFF7CEFAFFF796FAE2
:1033F000FFF78AF98248FDF7E7F9FFF729F9FFF7A8
:1034000095FB4FF4FA70FFF731FE814D9FED7D0A79
:10341000DFED7D0A9FED7D1A05F14000FFF7EAFA26
:103420007F4C9FED7C0ADFED7C0A9FED7C1A04F156
:103430004000FFF7DFFA9FED7B8A9FED7B9A9FEDBF
:103440007BAAB3EE041A9FED7A3A9FED7A4ADFED3C
:103450007A4AB1EE080AF0EE082A28460021F0EE7A
:10346000413AF0EE480AF0EE491AB0EE4A2AFFF768
:10347000D6FA9FED731AB0EE00BADFED700ADFEDF9
:10348000713A9FED714ADFED714AB1EE040A2046B0
:10349000F0EE491AB0EE4A2A0021F0EE4B2AB0EEC7
:1034A000413AFFF7BCFA9FED6A0ADFED6A0A6A4CFF
:1034B0006A48B2EE041AA0479FED690A6948F0EE27
:1034C000480AB0EE4B1AA0479FED679A9FED67AA96
:1034D0006748F0EE480AB0EE490AB0EE4A1AA04733
:1034E0006448B0EE490AF0EE480AB0EE4A1AA04726
:1034F000B2EE0E8A9FED600A6048F0EE4A0AB0EE26
:10350000481AA0479FED5E9A5E48F0EE4A0AB0EE78
:103510004A1AB0EE490AA0475B48B0EE490AF0EEFD
:103520004A0AB0EE4A1AA0479FED580A9FED581A72
:10353000DFED581A9FED582A5848F0EE480AFFF779
:103540007AF85748574CA0475748A0475748A047D4
:103550005748A047574858494FF07C524FF0FF4317
:10356000C0E90E660664C0E900210021C0E90263DB
:10357000C0E90466866102E042180431166210292F
:10358000FAD12DAC4D49B4222046FCF772FF6D46AE
:103590004B49B4222846FCF76CFF4A484A4E214664
:1035A000B0474A482946B04749482946B047494CA0
:1035B0004FF4FA70A0474848FEF754FE4FF4FA70F3
:1035C000A047464801210160002000F05FF900F0AB
:1035D0008BF8FFF7F9FC4FF4FA70A047404C414DCF
:1035E000FFF7F2FCFFF7F2FD00F09EF820780138BB
:1035F000B0FA80F04009286000F000FAF0E700BF60
:103600009406002000C0284500409C450000FA4474
:10361000C808002000800945005034450060BD44C2
:1036200058090020CDCC4C3D00409C4600409CC633
:103630000AD7233C00006144000061C4CDCCCC3DDE
:10364000000000000AD7A33C00001644000016C486
:10365000000048448FC2753D1F2D00083401002032
:103660000000FA4350010020000016430AD7A33B94
:10367000580A0020740A00200080BB446C0100201E
:103680000000C842AC0A0020900A0020295C0F3DCF
:10369000000096420000FA428FC2753C0C060020E2
:1036A0007C0B0020B12C0008040B0020400B0020F4
:1036B000C80A00204C0600200000C040B44B00089F
:1036C000004B0008C00B0020ED320008EC09002080
:1036D0002C0C00206D3000084C080020A4824042D1
:1036E000280000208802424210B50A4A0A4C0020F5
:1036F0000021A047094A01200021A047084A0220D2
:103700000021A047074A032000212346BDE81040BE
:10371000184700BF31550008613B00083D550008BF
:1037200037550008295500081E48017801290AD19B
:103730001D490A78022A08D0012A0CD100220A70F9
:103740004178013105E041780EE000220A704178AD
:103750000139417000E04178CAB2072A02D3012141
:1037600041700DE00A0615D04FF0FF3050FA81F09D
:10377000052888BF7047DFE800F0030507090B0F35
:1037800023A20AE018A208E012A206E00CA204E0BC
:1037900006A202E00621417018A20020052100F0D7
:1037A000DFB900BF20000020D10000206175746FD8
:1037B000486F72697A6F6E5F6D6F6465000000001C
:1037C0006175746F5F6D6F6465202020202020205C
:1037D0000000000064697374416E676C655F6D6F13
:1037E0006465202000000000646973745F6D6F647D
:1037F00065202020202020200000000074726163DA
:103800006B5F6D6F64652020202020200000000089
:10381000666972655F6D6F6465202020202020201E
:10382000000000002DE9F0470020002400F02EF8F1
:10383000DFF854901EE04FEAD80A002616E009EBA4
:10384000C600002710F80A500CE0391968B2B0F130
:10385000FF3F70B249B2CCBF0022012200F034F821
:1038600001376D00F8B20728EFD90136802EE6D176
:1038700008F108045FFA84F8B8F13F0FDBD9BDE81E
:10388000F04700F0BBB800BF804C0008664A4FF01C
:10389000000CBCF1080F08BF00F0B0B800230CE02A
:1038A000012806D000281ABF12F83310C94300219E
:1038B00000E0FF2102F833100133802BF0D10132F8
:1038C0000CF1010CE5E700BF0823012A91FBF3F39B
:1038D000A1EBC3010DD1544AC9B202EBC000DAB268
:1038E000012310F802C003FA01F141EA0C018154EE
:1038F00070475FFA81FC0121022A01FA0CFC4A4957
:1039000001EBC00151FA83F0DBB2CB5C14BF23EAB8
:103910000C0183EA0C010170704700BF10B5A54C83
:10392000102100222046FEF73DF84FF4FA70FDF713
:103930003DFF204610210122FEF734F8434CAE2013
:103940000021A04700200021A04710200021A0470F
:1039500040200021A04781200021A047CF20002146
:10396000A047A1200021A047C8200021A047A620F1
:103970000021A047A8200021A0473F200021A04708
:10398000D3200021A04700200021A047D5200021FE
:10399000A04780200021A047D9200021A047F12086
:1039A0000021A047DA200021A04712200021A047D3
:1039B000DB200021A04740200021A047202000213B
:1039C000A04702200021A0478D200021A0471420FD
:1039D0000021A047A4200021A047A6200021A04745
:1039E000AF200021A047AF200021A0470020FFF713
:1039F0004DFF0020BDE8104000F018B870B50A4D2A
:103A00000024082C08BF70BDE0B200F00FF80026BB
:103A100005E015F83600012100F0B8F80136802ED7
:103A2000F7D101350134ECE79401002010B550388E
:103A3000064C0021C0B2A04710200021A047002062
:103A400000212246BDE81040104700BF8D3B000812
:103A50002DE9F84F203A01EB410100EB40004FF017
:103A6000000A4C00D2B23D494FEA800802EB420006
:103A70005FFA88FB454601EB8009BAF10C0F08BFDD
:103A8000BDE8F88F19F80A70002601E001367F00C2
:103A9000072E11D878B269B2B0F1FF3F60B2CCBF47
:103AA00001220022FFF710FF0135E8B2A0EB0B0066
:103AB0000C28EBD1013445460AF1010ADDE700BFCD
:103AC000F8B514460D46064600270AE0F0B2E9B202
:103AD000FFF7BEFF01350137E8B2142884BF013675
:103AE0000025F8B2225C002AF0D1F8BD2DE9F84F8C
:103AF000203A01EB410100EB40004FF0000A4C007E
:103B0000D2B216494FEA800802EB42005FFA88FB06
:103B1000454601EB8009BAF10C0F08BFBDE8F88FEC
:103B200019F80A70002601E001367F00072E11D82F
:103B300078B269B2B0F1FF3F60B2CCBF002201227F
:103B4000FFF7C2FE0135E8B2A0EB0B000C28EBD169
:103B5000013445460AF1010ADDE700BF8050000844
:103B6000F8B514460D46064600270AE0F0B2E9B261
:103B7000FFF7BCFF01350137E8B2142884BF0136D6
:103B80000025F8B2225C002AF0D1F8BDE0B58DF82E
:103B90000700084800294FF002010CBF0022012253
:103BA000FDF700FF04480DF1070101220A23FEF78B
:103BB00031FA8CBD00000240F40700202DE9F041ED
:103BC0002DED028B2F4F304C97ED000A2046FFF76A
:103BD00085F8DFF8B8802E4D98ED000A2846FFF7EB
:103BE0007DF82C4E2C4894ED010A97ED003ADFED5C
:103BF0002B0A9FED2B1A2B4F96ED015A96ED004A9A
:103C000090ED042A96ED046A00F14004204620EE6F
:103C1000050A13EE440A02EE060AB847224895ED5B
:103C2000011A96ED030A96ED022A98ED004A96EDE8
:103C3000053AF2EE080A21EE000A90ED035A00F16F
:103C400040059FED1A1A14EE420A284605EE030AB3
:103C5000B847174E9FED178A9FED171A204696ED2D
:103C6000010AF0EE480AB8479FED141A96ED000AD3
:103C70002846F0EE480A3946BDEC028BBDE8F0411B
:103C8000084700BFBC0B0020AC0A0020E809002058
:103C9000900A00200800002058090020000070420F
:103CA0000000C8C2CB290008C8080020000020C2BC
:103CB0008801002000C0DA450000FA440000FA4301
:103CC00000B52DED048BB0EE409AF0EE609A83B013
:103CD00051EC190B00F060FA41EC180B18EE100AC9
:103CE00018EE901A8DED008B002818BF01200843B4
:103CF00020F00040C0F17F6000F1E040C00F14D020
:103D000019EE101A19EE900A8DED009B002918BFCC
:103D10000121084320F00040C0F17F6000F1E04045
:103D2000C00F04BF0120FCF705FCB0EE480A03B049
:103D3000F0EE680ABDEC048B00BD000021F00042EB
:103D400001F00043A2F16052B2F5801F28BFD2F10A
:103D50007E6C51D9F1EE10CA1CF4400F14D15FEA09
:103D6000C00C43EAC20202EB507008BF70475FEA22
:103D70004C0CDFF884C240F1000040F0CF8328BF34
:103D800020F0010000F0CABBC30001F0004343EA89
:103D9000C20202EB507008BF70471B4248BF4FEA97
:103DA0004C0C1CF4000F08BF401CDFF84CC200F0A4
:103DB000B5BBC30001F0004343EAC20202EB5072FC
:103DC00004BF104670471B4248BF4FEA4C0C1CF41E
:103DD000000FDFF824C218BF104640F09F8308BFD1
:103DE000521C12F4000F08BF104600F0978321F018
:103DF000004201F0004330E050EA410C04BF0846A5
:103E000070475FEA125CBCF1FE0F1ED1F1EE10CAE2
:103E10001CF4400FCDD15FEAC00C9BD05FEA001CC0
:103E20004FEAC20C4CEB507C04BFC2002CEAD27C9F
:103E30001CF4000F04BF4CEA0300DFF8BCC100F023
:103E40006D8321F00042A2F160524FEA410CB2F5BD
:103E5000801F2ADB1CF5001F16D2F1EE10CA1CF4DD
:103E6000806F06D02CF0005C4CF0805CA1F14061CA
:103E70002AE04FF07F4043EA5000DFF880C100F0B5
:103E80004DBB084600F001BD70B500F0C6F800BF9C
:103E9000000000B988000004FFF7F3BF21F0704272
:103EA00043EA507040EAC2007047F1EE10CA2CF0AD
:103EB000805C4CF0005C1CF4006F25D04B00B3F527
:103EC000001F51D301F140611CF4400F40F07E808F
:103ED0000CF0405C4CF0880CC30011D05CF0404CFE
:103EE00010F0805F0CD0034610F1005041F100014A
:103EF000020108BF20F00050834218BF2CF0004C94
:103F000000F0604000F0BDBD1CF4400F1AD01B4211
:103F100048BF4FEA4C0C1CF4000F13D112F1406261
:103F200048BF22F07F424FEAC00CBCF1010F43EAC8
:103F3000C20242EB50704FF0880228BF42F080422C
:103F400000F0A8BC12F1406248BF22F07F425FEA55
:103F5000C00C43EAC20242EA50704FF0880218BF18
:103F600042F0404200F096BC01F0004321F00041D5
:103F7000094214D0B1FA81FCACF10B0C01FA0CF13E
:103F8000CCF1200220FA02F241EA020100FA0CF020
:103F90004FEA0C52A1EB020181EA03010FE0B0FAF3
:103FA00080F200FA02F002F115024FEAD0214FEA46
:103FB00040504FEA0252A1EB020181EA0301F1EE07
:103FC00010CA2CF0805C4CF0005C7BE762460CF081
:103FD000405C4CF0880CC30092D05CF0404C09422D
:103FE00048BF520012F4000F8AD110F1005041F185
:103FF00000012CF0004C83D18800004088000010A4
:10400000B1FA81F201FA02F1C2F11D0203EB02538F
:104010004FEA415003EBD12170470EF1020E2EF012
:10402000030E5EF8086B012841EB010414F500143F
:1040300018BFB4F5801F23D3364208D4012A43EBBE
:10404000030515F5001518BFB5F5801F18D301EB52
:10405000010C1CF5801F16D2364204D403EB030C6E
:104060001CF5801F0FD2002C10D14FEAD17C0CEB35
:104070004C0C0CF1020C002D08BF4CEBD37C07E07C
:104080004FF0090C04E04FF0080C01E04FEAD37C3C
:104090000CEB4C0526FA05F606F00706B6F1040C03
:1040A00006D20EEB860CBDE870404CF0010C604768
:1040B000DFE80CF0222413025EF804CC1B2D08D19B
:1040C000002C88BFB4F5801F34BF4CF4804C4CF4F6
:1040D000004CBDE8704000F021BA002C88BFB4F558
:1040E000001F24BF1946104670BD4FF00041A1F5D6
:1040F00000214FF0000070BD19461046012851EB19
:10410000010418BFD4F5001484BF5EF804CC2CF071
:10411000806CBDE8704000F2E081704780B54FF0E0
:1041200003065C004FEA3606640D4FEA03334FEA9C
:10413000133318BF43F480131CD104F1010453EA74
:10414000125E02BF13460022203C1B4202BF130B2B
:104150001205143CB3FA83FEAEF10B0E03FA0EF314
:10416000A4EB0E04CEF1200C22FA0CFC43EA0C0363
:1041700002FA0EF20FB40CBC03BC16F0010F18BF0C
:104180002546CED180BD80B50126F3E70808A0F50D
:1041900000114FEA310170472DE9F04101F5801C13
:1041A000BCF5001FC0F2DC804FEA115C21EA0C5123
:1041B00041F480110CF1FD0C5FEA5C0C0CF5C07C45
:1041C00001D340004941890241EA9051870233A45A
:1041D0008E0EA45D0A0C04FB04F602FB06F6C6F183
:1041E0004046A4FB0662F60D46EA422606FB06F4AC
:1041F000A4FB01235242C3F1404338BF5B1EA6FB20
:1042000002420024E6FB0324D20B42EA4446A6FB0A
:104210000623A1FB02E2A3FB07E4E3FB6142644245
:10422000C2F1404E38BFAEF1010EA6FB04234FF0A1
:104230000002E6FB0E32A2FB03463400E2FB62649E
:10424000A1FB06E6A4FB07E8E4FB61687642C8F13F
:10425000405838BFA8F10108A2FB06E4A3FB08E51B
:10426000E2FB6854A1FB05E6A7FB04E8E1FB6486DA
:1042700018F1200556F10006A80940EA8660B10948
:10428000F1EE104A14F4400F28D1A8F11B0808F0F1
:104290001F08B8F10A0F21D901EB0C514FF0170C90
:1042A0004CF0804CBDE8F04100F038B9FCF5EEE888
:1042B000E2DDD8D3CFCBC7C3C0BDB9B6B4B1AEACC5
:1042C000A9A7A5A3A19F9D9B9A9896959392908F3D
:1042D0008D8C8B898887868584838281A0FB00688A
:1042E00000FB01F208EB4208B8EB872858EA060207
:1042F00015D014F4400F16D118EA080F07D534185A
:1043000058EB0104C8D5401C51F10001C4E7341A30
:1043100078EB0104C0D4401E71F10001BCE701EB51
:104320000C51BDE8F08114F4000F0CD118EA080F0D
:10433000B2D5361858EB0108401C51F1000136186F
:1043400058EB0108F2E718EA080FA5D4361A78EB03
:104350000108401E71F10001361A78EB0108F2E7FE
:104360005FEA4C0C5FEA9C5C14D10AD350EA013C32
:1043700001D1BDE8F08109420CD4FFF704FFA44647
:1043800018E7BDE8F04170B5FFF747FE6DDBFFBEF3
:1043900017000004BDE8F0415FF80CC000F0BEB8A3
:1043A000F1EE103A13F0807F1EBF01F000410020B3
:1043B000704713F4006F40F0AA80094248BF4CF4E4
:1043C000803C4FF4C0634FEA115203F1010321EA2C
:1043D000025122F400629A1A48BF6FF0FE0241F4C3
:1043E0008011352A3CD830D0152A1ED3203A0CD95A
:1043F000C2F12003002821FA02F001FA03F218BFEB
:1044000042F001024FF0000130E0C2F1000302F17E
:10441000200201FA03F120FA02F241EA020100FA55
:1044200003F208464FF0000120E010B4C2F120036F
:1044300000FA03F401FA03F320FA02F043EA000061
:1044400021FA02F1224610BC10E050EA01324FF08E
:1044500000004FF000014FF0004218BF521C05E071
:104460004FF001024FF000014FF000001CF4803FBC
:104470002CF4803C18BF41F0004112421ED0F1EEF6
:10448000103A13F4400F20D1520003D30CD0401C3B
:1044900041F10001F1EE103A43F00803E1EE103A69
:1044A0004CF0804C00F03AB85FEAAC72EFD4F1D136
:1044B000401C41F1000120F00100EBE71CF0804FAF
:1044C00008BF70472CF0004CE4E7094254BF13F4D6
:1044D000000F13F4800FDDD1D9E7F1EE103A13F09D
:1044E000807F1EBF01F000410020704713F4006F71
:1044F00008BF70472DE9F050FFF745FE04F5C06492
:10450000A4F10104314301EB0451BDE8F0504CF03B
:10451000005C4CF0800C00F0B4BA00001CF0700F8E
:1045200008BF0A460FB4F1EE101A0CF0405030EA02
:10453000814318BF4CF0804C4FEA4C034FEAD363E1
:1045400023EA112310EA814F18BF23F0100341EA38
:10455000030101F0E0734CEA030CE1EE101A0CF0D9
:104560000F030A2B1DBF082B0CF070034CEAC30C81
:104570004FF4003304BF33EA0C034CF4400C1CF03E
:10458000005F14D11CF0805F0BD11CF0804F31D143
:104590001CF0006F12D111F4807F0FBC62D000F0CC
:1045A00070BA11F4806F0FBC2BD000F06ABA11F40E
:1045B000006F0FBC08BF704700F063BA11F4007FB2
:1045C0000FBC40F05E821CF0400F1EBF4FF0004059
:1045D00040F0010070471CF0100F14BF81EA030285
:1045E00042400CF00F000A2808BF4FF0FF324FF096
:1045F000000326E011F4805F0FBC08BF704700F095
:1046000040BA2CF0805CF1EE103A1CF0800F14BF21
:1046100001F0004200F0004212420CBF12EA336F78
:1046200012EAF35F0DD31CF0100F1DBF30A003C8BA
:104630001143314808BF104313F4805F40F02182DA
:10464000704702F000421CF0100F1DBF0FF29400E3
:1046500003C81143254808BF104313F4805F40F09E
:10466000108270471CF0400F40F028801CF4404F2F
:104670001BD01CF4004F1CBF194610460CF480726E
:1046800018BF8CEA520C1CF0800F0CBF40F4800065
:1046900041F400218CEADC0313F0100F1CBF2CF056
:1046A0000F0C4CF0080C00F093B91CF0100F1ABF5F
:1046B00012A393E80300134800F08AB91CF0800F9E
:1046C00014BF01F0004200F000421CF0100F1BBFAD
:1046D0000AA393E803000B48114308BF104300F0FE
:1046E00077B900BF000000000000F07F0000807F6D
:1046F000FFFFFFFFFFFFEF7FFFFF7F7F0000000056
:104700000000F87F0000C07F43004FEAD30C4FEA5F
:104710003C0C43401FBF40070CF1605113F0FE4FAB
:1047200070471CF0006F14D133F0004004BF1946ED
:10473000704783EA830383EA430303F0070343EAF2
:10474000CC010CF0004303F15A5303F54013FFF77B
:1047500057BC0CF0004343EA507040EACC0010B55F
:1047600000F00FF8000000BA180000044FEA000142
:10477000FFF70CBD4FEAE0024FEA407042F0E04123
:1047800070470EF1020E2EF0030E5EF8084B4FEA52
:10479000400212F1807218BFB2F5000F22D32442FA
:1047A00007D44FEA410313F1807318BFB3F5000F2C
:1047B00018D34FEA400C1CF5000F16D2244204D443
:1047C0004FEA410C1CF5000F0FD2002A10D14FEA1E
:1047D000D07C0CEB4C0C0CF1020C002B08BF4CEB0A
:1047E000D17C07E04FF0090C04E04FF0080C01E029
:1047F0004FEAD17C0CEB4C0324FA03F404F00704D9
:10480000B4F1040C06D20EEB840CBDE810404CF061
:10481000010C6047DFE80CF01F2013025EF804CCA7
:104820001B2B08D1002A88BFB2F5000F34BF4CF40F
:10483000804C4CF4004CBDE81040FFF76FBE002ADE
:1048400088BFB2F1807F28BF084610BD4FF00040FE
:10485000A0F5800010BD0846420018BFD2F180725A
:1048600084BF5EF8042C22F08062BDE8104000F2A4
:1048700090807047F1EE100A4FF6FF71C0F2C03120
:1048800020EA0100E1EE100A7047FF2141EAD05012
:10489000C0057047F1EE101A11F0807F1CBF00F0C8
:1048A0000040704711F4006F40F08E8000F000432C
:1048B00043EAD05323F48073C3F1C10323F00041D2
:1048C000172941D8C3F1200310FA03F1C3F12003E3
:1048D00020F07F4040F4000020FA03F003F0004392
:1048E00040EA030019D00B46F1EE101A41F008011E
:1048F000E1EE101A11F4400F1CD1590009D318BF72
:10490000401C06D17FEAE27398BF401C38BF20F0FC
:10491000010042F0804CFFF701BE12F0804F08BF4B
:104920007047F1EE101A41F00801E1EE101A9446BA
:10493000FFF7F4BD10F0004F14BF5FEAF1535FEAD8
:10494000316338BF401CE4E703EB9123182918BFFB
:104950006FF000410131F1EE101A41F00801E1EE73
:10496000101A11F4400F18BF03F00040E2D168BFE5
:1049700003F0004009D6400203F0004000F10100BE
:1049800004BF12F0004F20F001004FF0804CFFF701
:10499000C5BDF1EE101A11F0807F1CBF00F0004081
:1049A000704711F4006F08BF704700F0004141F0FC
:1049B000C04120F00040B0FA80F3A3F1080300FAF0
:1049C00003F0A1EBC351084442F0005C00F059B879
:1049D0000CF00F03092B08BF082000F064800A2B9D
:1049E00032D0082B18BF704708BF1CF0400F31D0E1
:1049F0001CF4803F23D11CF0200F11D11CF0100FAC
:104A00000BBF02460A466FF000406FF0004118BF2E
:104A10004FF0FF3012F0004F1CBFC043C943704736
:104A20001CF0100F0CBF02460A4612F0004F4FF068
:104A3000FF304FF0FF311CBFC043C94370474FF0F8
:104A400000004FF0000170471CF0400F18BF4FF0FE
:104A5000004070471CF0100F08D000F07F4220F09B
:104A6000704342EAD3014FEA4370704700F0604060
:104A700021F07F4242EA000201F07F4040EA72707A
:104A800070472DE900502DE90050FBF75DFDBDE8B2
:104A90000050BDE800500CF00F0393F0090F18BF51
:104AA0007047AFF300801CF4801F24D01CF4E02F6B
:104AB00009D010F0080F02D1D0F1020070476FEA60
:104AC000CC31490070474FF0604111EA407028BF77
:104AD00040F04050F1EE103A23F0704343EA0003F7
:104AE000E1EE103AEFF3008222F0704242EA000257
:104AF00082F3008870471CEA004018BF012070470D
:104B000000000000000000000000000000000000A5
:104B10000000000000000000000000000000000095
:104B20000000000000000000000000000000000085
:104B30000000000000000000000000000000000075
:104B40000000000000000040000000000000000025
:104B50000000004000000000000000000000000015
:104B60000000000000000000000000000000000045
:104B7000000000000000803F6F12833A0000000038
:104B80000000803F0000803F0000000000000000A7
:104B90000000803F0000803F000000000000000097
:104BA0000000803F0000FA45000000000000000007
:104BB00000000000000000000000000000000000F5
:104BC00000000000000000000000000000000000E5
:104BD00000000000000000000000000000000000D5
:104BE00000000000000000000000000000000000C5
:104BF0000000000000000000000000400000000075
:104C00000000000000000040000000000000000064
:104C10000000000000000000000000000000000094
:104C200000000000000000000000803F6F12833A87
:104C3000000000000000803F0000803F00000000F6
:104C4000000000000000803F0000803F00000000E6
:104C5000000000000000803F00007A4400000000D7
:104C60000000000000000000000000000000000044
:104C70000102030406070809000000000102030402
:104C80000000000000000000000000000000000024
:104C90000000000000000000000000000000000014
:104CA0000000000000000000000000000000000004
:104CB00000000000000000000000000000000000F4
:104CC0000000000000000006000000000000001EC0
:104CD00000000000000000DE00000000000000D81E
:104CE00000000000000000D800000000000000D814
:104CF00000000000000000DE00000000000000FED8
:104D000000000000000000F600000000000000723B
:104D10000000000000000000000000000000007C17
:104D200000000000000000FE00000000000000C6BF
:104D300000000000000000C600000000000000C6E7
:104D400000000000000000FE000000000000007CE9
:104D50000000000000000000000000000000001E35
:104D600000000000000000DE00000000000000D68F
:104D700000000000000000D600000000000000D687
:104D800000000000000000D600000000000000DE6F
:104D900040000000000000FE600000000010006CF9
:104DA00070000000003000007800000000F0007C7F
:104DB0007C00000007F000FE7E0000003FF000C60F
:104DC0007F000001FFF000C67F80000FFFF000C6EB
:104DD0007FC0007FFFF000FE7FE003FFFFF0007C5C
:104DE0007FF03FFFFFF000027FF83FFFFFF000067B
:104DF0007FFC3FFFFFF0001E7FFE3FFFFFF000BC87
:104E00007FFF3FFFFFF000E07FFFBFFFFF8000F864
:104E10007FFFFFFFFC00003E7FFFFFFFE000000E72
:104E20007FFFFFFF000000B87FFFFFF8000000E0F9
:104E30007FFFFFF0000000FE7FFFFFF00000001E7C
:104E40007FFFFFF0000000027FFFFFF00000000086
:104E50007FEFFFF0020000067FE7FFF00200000E88
:104E60007FE3FFF00200001C7FE1FFF8030000BABF
:104E70007FE0FFFC030000F67FE07FFE038000E69A
:104E80007FE03FFF038000F67FE03FFF83C0003EEE
:104E90007FE03FFFC3C0000E7FE03FFFE3E0000282
:104EA0007FE03FFFF3E000007FE03FFFFBF0000208
:104EB0007FE03FFFFFF000667FE03FFFFFF800F676
:104EC0007FE03FFFFFF800D67FE03FFFFFFC00D60A
:104ED0007FF07FFFFFFC00D67FF8FFF7FFFE00D6D4
:104EE0007FFFFFF3FFFE00DE3FFFFFE1FFFF008CCF
:104EF0003FFFFFE0FFCF00401FFFFFC07FC780C024
:104F00001FFFFFC03FC380C00FFFFF801FC1C0FE57
:104F100007FFFF000FC0C0FE03FFFE0007C060C018
:104F200001FFFC0003C020C0007FF00001C000862C
:104F3000000F800000C0001600000000004000D6F6
:104F400000000000000000D600000000000000D6B5
:104F500000000000000000D600000000000000D6A5
:104F600000000000000000D000000000000000C0B1
:104F70000000000000000006000000000000001E0D
:104F800000000000000000DE00000000000000D86B
:104F900000000000000000D800000000000000D861
:104FA00000000000000000DE00000000000000DE45
:104FB00000000000000000F6000000000000007289
:104FC000000000000000000000000000000000627F
:104FD00000000000000000F600000000000000F6E5
:104FE00000000000000000D600000000000000D615
:104FF00000000000000000D600000000000000DEFD
:10500000000000000000008C000000000000000014
:105010000000000000000000000000000000000090
:105020000000000000000000000000000000000080
:105030000000000000000000000000000000000070
:105040000000000000000000000000000000000060
:105050000000000000000000000000000000000050
:105060000000000000000000000000000000000040
:105070000000000000000000000000000000000030
:105080000000000000000000000000000000000020
:105090003F400000000000000000300040003000F1
:1050A0004000000009000BC03D000BC03D0009009E
:1050B00018C024407FE0224031800000180024C046
:1050C0001B000D803240018003801C4027401C8063
:1050D00007400040100060000000000000000000D9
:1050E0000000000000001F80204040200000402001
:1050F00020401F8000000000090006001F800600FD
:1051000009000000040004003F80040004000000C7
:105110000010006000000000000000000400040017
:105120000400040004000000000000400000000033
:1051300000000000002001C0060038004000000010
:105140001F802040204020401F80000000001040B1
:105150003FC000400000000018C021402240244011
:105160001840000010802040244024401B80000094
:1051700002000D0011003FC0014000003C802440AF
:1051800024402440238000001F80244024403440D9
:10519000038000003000200027C0380020000000FD
:1051A0001B802440244024401B8000001C0022C09F
:1051B000224022401F800000000000000840000044
:1051C000000000000000000004600000000000007B
:1051D000000004000A00110020804040090009007E
:1051E0000900090009000000000040402080110073
:1051F0000A000400180020002340240018000000CA
:105200001F802040274029401F400000004007C069
:1052100039000F0001C0004020403FC0244024401E
:105220001B8000001F802040204020403080000074
:1052300020403FC0204020401F80000020403FC051
:1052400024402E4030C0000020403FC024402E00AB
:10525000300000000F001080204022403380020008
:1052600020403FC0040004003FC0204020402040B8
:105270003FC02040204000000060202020203FC090
:105280002000200020403FC024400B0030C02040C0
:1052900020403FC020400040004000C03FC03C00D4
:1052A00003C03C003FC0000020403FC00C40230032
:1052B0003FC020001F802040204020401F80000071
:1052C00020403FC024402400180000001F802140DF
:1052D000214020E01FA0000020403FC024402600C5
:1052E00019C0004018C024402440224031800000F2
:1052F000300020403FC020403000000020003F80B0
:10530000004000403F80200020003E0001C0070018
:1053100038002000380007C03C0007C038000000FB
:10532000204039C0060039C020400000200038402D
:1053300007C0384020000000304021C026403840DF
:1053400020C00000000000007FE04020402000005E
:10535000000070000C0003800040000000004020AE
:1053600040207FE0000000000000200040002000FE
:1053700000000000001000100010001000100010CD
:10538000000000004000000000000000000002805B
:105390000540054003C0004020003FC004400440D9
:1053A0000380000000000380044004400640000029
:1053B00000000380044024403FC000400000038000
:1053C0000540054003400000000004401FC0244089
:1053D00024402000000002E0055005500650042043
:1053E00020403FC00440040003C0004000000440CF
:1053F00027C000400000000000100010041027E04B
:105400000000000020403FC00140070004C00440ED
:10541000204020403FC000400040000007C0040082
:1054200007C0040003C00000044007C0044004009B
:1054300003C00040000003800440044003800000DB
:10544000041007F0045004400380000000000380B3
:105450000440045007F00010044007C0024004005C
:1054600004000000000006400540054004C00000A4
:10547000000004001F80044000400000040007807A
:105480000040044007C000400400070004C0018041
:1054900006000400060001C0070001C0060000006D
:1054A000044006C0010006C00440000004100710BC
:1054B00004E00180060004000000044005C006402E
:1054C000044000000000000004007BE040200000D9
:1054D000000000000000FFF000000000000040207D
:1054E0007BE004000000000040008000400020003D
:1054F000200040002E2E2F4150502F5372632F74E6
:10550000696D2E63002E2E2F4150502F5372632F42
:1055100075736172742E63002E2E2F4150502F53DD
:1055200072632F6164632E630052656C6F61643A2D
:10553000004D6F64653A00466972653A00446973CC
:10554000743A000068550008000000203000000098
:10555000C4010008985500083000002068120000BF
:10556000E001000800000000010000001000000041
:105570006F12033C6F12033B0AD7A33B17B7513A94
:105580000AD7A33BBC7413BC010100000024F40043
:08559000FF0000000000000014
:040000050800018965
:00000001FF
